{"contracts/DaccyChallenge.sol":{"DaccyChallenge":{"abi":[{"inputs":[],"stateMutability":"nonpayable","type":"constructor"},{"anonymous":false,"inputs":[{"indexed":true,"internalType":"uint256","name":"challengeId","type":"uint256"},{"indexed":false,"internalType":"uint256","name":"entryFee","type":"uint256"},{"indexed":false,"internalType":"uint256","name":"reward","type":"uint256"},{"indexed":false,"internalType":"uint256","name":"difficulty","type":"uint256"}],"name":"ChallengeCreated","type":"event"},{"anonymous":false,"inputs":[{"indexed":true,"internalType":"uint256","name":"challengeId","type":"uint256"},{"indexed":false,"internalType":"address","name":"participant","type":"address"}],"name":"ChallengeFailed","type":"event"},{"anonymous":false,"inputs":[{"indexed":true,"internalType":"uint256","name":"challengeId","type":"uint256"},{"indexed":false,"internalType":"address","name":"participant","type":"address"}],"name":"ChallengeParticipated","type":"event"},{"anonymous":false,"inputs":[{"indexed":true,"internalType":"uint256","name":"challengeId","type":"uint256"},{"indexed":false,"internalType":"address","name":"solver","type":"address"},{"indexed":false,"internalType":"uint256","name":"reward","type":"uint256"}],"name":"ChallengeSolved","type":"event"},{"stateMutability":"payable","type":"fallback"},{"inputs":[],"name":"challengeCount","outputs":[{"internalType":"uint256","name":"","type":"uint256"}],"stateMutability":"view","type":"function"},{"inputs":[{"internalType":"uint256","name":"","type":"uint256"}],"name":"challenges","outputs":[{"internalType":"uint256","name":"entryFee","type":"uint256"},{"internalType":"uint256","name":"reward","type":"uint256"},{"internalType":"uint256","name":"difficulty","type":"uint256"},{"internalType":"bool","name":"isActive","type":"bool"},{"internalType":"uint256","name":"lockedAmount","type":"uint256"}],"stateMutability":"view","type":"function"},{"inputs":[{"internalType":"uint256","name":"_entryFee","type":"uint256"},{"internalType":"uint256","name":"_reward","type":"uint256"},{"internalType":"uint256","name":"_difficulty","type":"uint256"}],"name":"createChallenge","outputs":[],"stateMutability":"nonpayable","type":"function"},{"inputs":[{"internalType":"uint256","name":"_challengeId","type":"uint256"}],"name":"deactivateChallenge","outputs":[],"stateMutability":"nonpayable","type":"function"},{"inputs":[],"name":"owner","outputs":[{"internalType":"address","name":"","type":"address"}],"stateMutability":"view","type":"function"},{"inputs":[{"internalType":"uint256","name":"_challengeId","type":"uint256"}],"name":"participate","outputs":[],"stateMutability":"payable","type":"function"},{"inputs":[{"internalType":"uint256","name":"_challengeId","type":"uint256"},{"internalType":"bool","name":"_isCorrect","type":"bool"}],"name":"submitSolution","outputs":[],"stateMutability":"nonpayable","type":"function"},{"inputs":[],"name":"withdrawLockedAmount","outputs":[],"stateMutability":"nonpayable","type":"function"},{"stateMutability":"payable","type":"receive"}],"evm":{"bytecode":{"linkReferences":{},"object":"60808060405234602757600080546001600160a01b0319163317905561070c908161002d8239f35b600080fdfe60806040526004361015610010575b005b60003560e01c80634fcc2c881461062f57806351d2f246146104c9578063845c93061461035c57806389fc38071461019e5780638da5cb5b146101755780638f1d377614610118578063a2f05725146100fa5763d726f3190361000e57346100f55760003660031901126100f5576000546001600160a01b0316610095338214610673565b479081156100b9576000808093819382f1156100ad57005b6040513d6000823e3d90fd5b60405162461bcd60e51b81526020600482015260146024820152734e6f2066756e647320746f20776974686472617760601b6044820152606490fd5b600080fd5b346100f55760003660031901126100f5576020600254604051908152f35b346100f55760203660031901126100f557600435600052600160205260a060406000208054906001810154906002810154600660ff6003840154169201549260405194855260208501526040840152151560608301526080820152f35b346100f55760003660031901126100f5576000546040516001600160a01b039091168152602090f35b346100f55760403660031901126100f55760043560243580151581036100f55781600052600160205260406000209060018060a01b0333166000526004820160205260ff604060002054161561032357156102e45760068101805491600181019283541161029f5733600090815260059190910160205260409020805460ff1916600117905581548154818103908111610289576000809392819392829355818115610280575b3390f1156100ad5760407fec5fedc172d29053dca0966115cec0fd3d8aa33da7ae6864d48bc027cd4546cf91548151903382526020820152a2005b506108fc610245565b634e487b7160e01b600052601160045260246000fd5b60405162461bcd60e51b815260206004820152601d60248201527f496e73756666696369656e742066756e647320666f72207265776172640000006044820152606490fd5b6102f56006825492019182546106c9565b90557f61dcb7fa860e7e38e91b49276d6bfba58f1d766da616d851c2e14af7b37701446020604051338152a2005b60405162461bcd60e51b8152602060048201526011602482015270139bdd0818481c185c9d1a58da5c185b9d607a1b6044820152606490fd5b60203660031901126100f557600435806000526001602052604060002060ff60038201541615610484578054340361044957600481019060018060a01b0333166000528160205260ff6040600020541661040c5760069160018060a01b0333166000526020526040600020600160ff19825416179055016103de3482546106c9565b90557f5566b34ac6656d5f2d5e85c026fa44ba79a57824b72414dfd5d86877b42ee1276020604051338152a2005b60405162461bcd60e51b8152602060048201526015602482015274416c72656164792070617274696369706174696e6760581b6044820152606490fd5b60405162461bcd60e51b8152602060048201526013602482015272496e636f727265637420656e7472792066656560681b6044820152606490fd5b60405162461bcd60e51b815260206004820152601760248201527f4368616c6c656e6765206973206e6f74206163746976650000000000000000006044820152606490fd5b346100f55760603660031901126100f55760043560243590604435906104fa60018060a01b03600054163314610673565b600182101580610624575b156105df578083111561058c57600254906000198214610289577f71444deea443abe40c561182ab0dae2411f0332e97f2632843873f3e17f4b7f6926001606093018060025560005260016020526003604060002083815586600182015582600282015501600160ff198254161790556002549460405192835260208301526040820152a2005b60405162461bcd60e51b815260206004820152602560248201527f526577617264206d7573742062652067726561746572207468616e20656e7472604482015264792066656560d81b6064820152608490fd5b60405162461bcd60e51b815260206004820152601d60248201527f446966666963756c7479206d75737420626520312c20322c206f7220330000006044820152606490fd5b506003821115610505565b346100f55760203660031901126100f55761065560018060a01b03600054163314610673565b6004356000908152600160205260409020600301805460ff19169055005b1561067a57565b60405162461bcd60e51b815260206004820152602160248201527f4f6e6c79206f776e65722063616e2063616c6c20746869732066756e6374696f6044820152603760f91b6064820152608490fd5b919082018092116102895756fea2646970667358221220db45a975bdea8f701cea084370140628032aaf65d016d8ddda2d2423bbebdb8564736f6c634300081c0033","opcodes":"PUSH1 0x80 DUP1 PUSH1 0x40 MSTORE CALLVALUE PUSH1 0x27 JUMPI PUSH1 0x0 DUP1 SLOAD PUSH1 0x1 PUSH1 0x1 PUSH1 0xA0 SHL SUB NOT AND CALLER OR SWAP1 SSTORE PUSH2 0x70C SWAP1 DUP2 PUSH2 0x2D DUP3 CODECOPY RETURN JUMPDEST PUSH1 0x0 DUP1 REVERT INVALID PUSH1 0x80 PUSH1 0x40 MSTORE PUSH1 0x4 CALLDATASIZE LT ISZERO PUSH2 0x10 JUMPI JUMPDEST STOP JUMPDEST PUSH1 0x0 CALLDATALOAD PUSH1 0xE0 SHR DUP1 PUSH4 0x4FCC2C88 EQ PUSH2 0x62F JUMPI DUP1 PUSH4 0x51D2F246 EQ PUSH2 0x4C9 JUMPI DUP1 PUSH4 0x845C9306 EQ PUSH2 0x35C JUMPI DUP1 PUSH4 0x89FC3807 EQ PUSH2 0x19E JUMPI DUP1 PUSH4 0x8DA5CB5B EQ PUSH2 0x175 JUMPI DUP1 PUSH4 0x8F1D3776 EQ PUSH2 0x118 JUMPI DUP1 PUSH4 0xA2F05725 EQ PUSH2 0xFA JUMPI PUSH4 0xD726F319 SUB PUSH2 0xE JUMPI CALLVALUE PUSH2 0xF5 JUMPI PUSH1 0x0 CALLDATASIZE PUSH1 0x3 NOT ADD SLT PUSH2 0xF5 JUMPI PUSH1 0x0 SLOAD PUSH1 0x1 PUSH1 0x1 PUSH1 0xA0 SHL SUB AND PUSH2 0x95 CALLER DUP3 EQ PUSH2 0x673 JUMP JUMPDEST SELFBALANCE SWAP1 DUP2 ISZERO PUSH2 0xB9 JUMPI PUSH1 0x0 DUP1 DUP1 SWAP4 DUP2 SWAP4 DUP3 CALL ISZERO PUSH2 0xAD JUMPI STOP JUMPDEST PUSH1 0x40 MLOAD RETURNDATASIZE PUSH1 0x0 DUP3 RETURNDATACOPY RETURNDATASIZE SWAP1 REVERT JUMPDEST PUSH1 0x40 MLOAD PUSH3 0x461BCD PUSH1 0xE5 SHL DUP2 MSTORE PUSH1 0x20 PUSH1 0x4 DUP3 ADD MSTORE PUSH1 0x14 PUSH1 0x24 DUP3 ADD MSTORE PUSH20 0x4E6F2066756E647320746F207769746864726177 PUSH1 0x60 SHL PUSH1 0x44 DUP3 ADD MSTORE PUSH1 0x64 SWAP1 REVERT JUMPDEST PUSH1 0x0 DUP1 REVERT JUMPDEST CALLVALUE PUSH2 0xF5 JUMPI PUSH1 0x0 CALLDATASIZE PUSH1 0x3 NOT ADD SLT PUSH2 0xF5 JUMPI PUSH1 0x20 PUSH1 0x2 SLOAD PUSH1 0x40 MLOAD SWAP1 DUP2 MSTORE RETURN JUMPDEST CALLVALUE PUSH2 0xF5 JUMPI PUSH1 0x20 CALLDATASIZE PUSH1 0x3 NOT ADD SLT PUSH2 0xF5 JUMPI PUSH1 0x4 CALLDATALOAD PUSH1 0x0 MSTORE PUSH1 0x1 PUSH1 0x20 MSTORE PUSH1 0xA0 PUSH1 0x40 PUSH1 0x0 KECCAK256 DUP1 SLOAD SWAP1 PUSH1 0x1 DUP2 ADD SLOAD SWAP1 PUSH1 0x2 DUP2 ADD SLOAD PUSH1 0x6 PUSH1 0xFF PUSH1 0x3 DUP5 ADD SLOAD AND SWAP3 ADD SLOAD SWAP3 PUSH1 0x40 MLOAD SWAP5 DUP6 MSTORE PUSH1 0x20 DUP6 ADD MSTORE PUSH1 0x40 DUP5 ADD MSTORE ISZERO ISZERO PUSH1 0x60 DUP4 ADD MSTORE PUSH1 0x80 DUP3 ADD MSTORE RETURN JUMPDEST CALLVALUE PUSH2 0xF5 JUMPI PUSH1 0x0 CALLDATASIZE PUSH1 0x3 NOT ADD SLT PUSH2 0xF5 JUMPI PUSH1 0x0 SLOAD PUSH1 0x40 MLOAD PUSH1 0x1 PUSH1 0x1 PUSH1 0xA0 SHL SUB SWAP1 SWAP2 AND DUP2 MSTORE PUSH1 0x20 SWAP1 RETURN JUMPDEST CALLVALUE PUSH2 0xF5 JUMPI PUSH1 0x40 CALLDATASIZE PUSH1 0x3 NOT ADD SLT PUSH2 0xF5 JUMPI PUSH1 0x4 CALLDATALOAD PUSH1 0x24 CALLDATALOAD DUP1 ISZERO ISZERO DUP2 SUB PUSH2 0xF5 JUMPI DUP2 PUSH1 0x0 MSTORE PUSH1 0x1 PUSH1 0x20 MSTORE PUSH1 0x40 PUSH1 0x0 KECCAK256 SWAP1 PUSH1 0x1 DUP1 PUSH1 0xA0 SHL SUB CALLER AND PUSH1 0x0 MSTORE PUSH1 0x4 DUP3 ADD PUSH1 0x20 MSTORE PUSH1 0xFF PUSH1 0x40 PUSH1 0x0 KECCAK256 SLOAD AND ISZERO PUSH2 0x323 JUMPI ISZERO PUSH2 0x2E4 JUMPI PUSH1 0x6 DUP2 ADD DUP1 SLOAD SWAP2 PUSH1 0x1 DUP2 ADD SWAP3 DUP4 SLOAD GT PUSH2 0x29F JUMPI CALLER PUSH1 0x0 SWAP1 DUP2 MSTORE PUSH1 0x5 SWAP2 SWAP1 SWAP2 ADD PUSH1 0x20 MSTORE PUSH1 0x40 SWAP1 KECCAK256 DUP1 SLOAD PUSH1 0xFF NOT AND PUSH1 0x1 OR SWAP1 SSTORE DUP2 SLOAD DUP2 SLOAD DUP2 DUP2 SUB SWAP1 DUP2 GT PUSH2 0x289 JUMPI PUSH1 0x0 DUP1 SWAP4 SWAP3 DUP2 SWAP4 SWAP3 DUP3 SWAP4 SSTORE DUP2 DUP2 ISZERO PUSH2 0x280 JUMPI JUMPDEST CALLER SWAP1 CALL ISZERO PUSH2 0xAD JUMPI PUSH1 0x40 PUSH32 0xEC5FEDC172D29053DCA0966115CEC0FD3D8AA33DA7AE6864D48BC027CD4546CF SWAP2 SLOAD DUP2 MLOAD SWAP1 CALLER DUP3 MSTORE PUSH1 0x20 DUP3 ADD MSTORE LOG2 STOP JUMPDEST POP PUSH2 0x8FC PUSH2 0x245 JUMP JUMPDEST PUSH4 0x4E487B71 PUSH1 0xE0 SHL PUSH1 0x0 MSTORE PUSH1 0x11 PUSH1 0x4 MSTORE PUSH1 0x24 PUSH1 0x0 REVERT JUMPDEST PUSH1 0x40 MLOAD PUSH3 0x461BCD PUSH1 0xE5 SHL DUP2 MSTORE PUSH1 0x20 PUSH1 0x4 DUP3 ADD MSTORE PUSH1 0x1D PUSH1 0x24 DUP3 ADD MSTORE PUSH32 0x496E73756666696369656E742066756E647320666F7220726577617264000000 PUSH1 0x44 DUP3 ADD MSTORE PUSH1 0x64 SWAP1 REVERT JUMPDEST PUSH2 0x2F5 PUSH1 0x6 DUP3 SLOAD SWAP3 ADD SWAP2 DUP3 SLOAD PUSH2 0x6C9 JUMP JUMPDEST SWAP1 SSTORE PUSH32 0x61DCB7FA860E7E38E91B49276D6BFBA58F1D766DA616D851C2E14AF7B3770144 PUSH1 0x20 PUSH1 0x40 MLOAD CALLER DUP2 MSTORE LOG2 STOP JUMPDEST PUSH1 0x40 MLOAD PUSH3 0x461BCD PUSH1 0xE5 SHL DUP2 MSTORE PUSH1 0x20 PUSH1 0x4 DUP3 ADD MSTORE PUSH1 0x11 PUSH1 0x24 DUP3 ADD MSTORE PUSH17 0x139BDD0818481C185C9D1A58DA5C185B9D PUSH1 0x7A SHL PUSH1 0x44 DUP3 ADD MSTORE PUSH1 0x64 SWAP1 REVERT JUMPDEST PUSH1 0x20 CALLDATASIZE PUSH1 0x3 NOT ADD SLT PUSH2 0xF5 JUMPI PUSH1 0x4 CALLDATALOAD DUP1 PUSH1 0x0 MSTORE PUSH1 0x1 PUSH1 0x20 MSTORE PUSH1 0x40 PUSH1 0x0 KECCAK256 PUSH1 0xFF PUSH1 0x3 DUP3 ADD SLOAD AND ISZERO PUSH2 0x484 JUMPI DUP1 SLOAD CALLVALUE SUB PUSH2 0x449 JUMPI PUSH1 0x4 DUP2 ADD SWAP1 PUSH1 0x1 DUP1 PUSH1 0xA0 SHL SUB CALLER AND PUSH1 0x0 MSTORE DUP2 PUSH1 0x20 MSTORE PUSH1 0xFF PUSH1 0x40 PUSH1 0x0 KECCAK256 SLOAD AND PUSH2 0x40C JUMPI PUSH1 0x6 SWAP2 PUSH1 0x1 DUP1 PUSH1 0xA0 SHL SUB CALLER AND PUSH1 0x0 MSTORE PUSH1 0x20 MSTORE PUSH1 0x40 PUSH1 0x0 KECCAK256 PUSH1 0x1 PUSH1 0xFF NOT DUP3 SLOAD AND OR SWAP1 SSTORE ADD PUSH2 0x3DE CALLVALUE DUP3 SLOAD PUSH2 0x6C9 JUMP JUMPDEST SWAP1 SSTORE PUSH32 0x5566B34AC6656D5F2D5E85C026FA44BA79A57824B72414DFD5D86877B42EE127 PUSH1 0x20 PUSH1 0x40 MLOAD CALLER DUP2 MSTORE LOG2 STOP JUMPDEST PUSH1 0x40 MLOAD PUSH3 0x461BCD PUSH1 0xE5 SHL DUP2 MSTORE PUSH1 0x20 PUSH1 0x4 DUP3 ADD MSTORE PUSH1 0x15 PUSH1 0x24 DUP3 ADD MSTORE PUSH21 0x416C72656164792070617274696369706174696E67 PUSH1 0x58 SHL PUSH1 0x44 DUP3 ADD MSTORE PUSH1 0x64 SWAP1 REVERT JUMPDEST PUSH1 0x40 MLOAD PUSH3 0x461BCD PUSH1 0xE5 SHL DUP2 MSTORE PUSH1 0x20 PUSH1 0x4 DUP3 ADD MSTORE PUSH1 0x13 PUSH1 0x24 DUP3 ADD MSTORE PUSH19 0x496E636F727265637420656E74727920666565 PUSH1 0x68 SHL PUSH1 0x44 DUP3 ADD MSTORE PUSH1 0x64 SWAP1 REVERT JUMPDEST PUSH1 0x40 MLOAD PUSH3 0x461BCD PUSH1 0xE5 SHL DUP2 MSTORE PUSH1 0x20 PUSH1 0x4 DUP3 ADD MSTORE PUSH1 0x17 PUSH1 0x24 DUP3 ADD MSTORE PUSH32 0x4368616C6C656E6765206973206E6F7420616374697665000000000000000000 PUSH1 0x44 DUP3 ADD MSTORE PUSH1 0x64 SWAP1 REVERT JUMPDEST CALLVALUE PUSH2 0xF5 JUMPI PUSH1 0x60 CALLDATASIZE PUSH1 0x3 NOT ADD SLT PUSH2 0xF5 JUMPI PUSH1 0x4 CALLDATALOAD PUSH1 0x24 CALLDATALOAD SWAP1 PUSH1 0x44 CALLDATALOAD SWAP1 PUSH2 0x4FA PUSH1 0x1 DUP1 PUSH1 0xA0 SHL SUB PUSH1 0x0 SLOAD AND CALLER EQ PUSH2 0x673 JUMP JUMPDEST PUSH1 0x1 DUP3 LT ISZERO DUP1 PUSH2 0x624 JUMPI JUMPDEST ISZERO PUSH2 0x5DF JUMPI DUP1 DUP4 GT ISZERO PUSH2 0x58C JUMPI PUSH1 0x2 SLOAD SWAP1 PUSH1 0x0 NOT DUP3 EQ PUSH2 0x289 JUMPI PUSH32 0x71444DEEA443ABE40C561182AB0DAE2411F0332E97F2632843873F3E17F4B7F6 SWAP3 PUSH1 0x1 PUSH1 0x60 SWAP4 ADD DUP1 PUSH1 0x2 SSTORE PUSH1 0x0 MSTORE PUSH1 0x1 PUSH1 0x20 MSTORE PUSH1 0x3 PUSH1 0x40 PUSH1 0x0 KECCAK256 DUP4 DUP2 SSTORE DUP7 PUSH1 0x1 DUP3 ADD SSTORE DUP3 PUSH1 0x2 DUP3 ADD SSTORE ADD PUSH1 0x1 PUSH1 0xFF NOT DUP3 SLOAD AND OR SWAP1 SSTORE PUSH1 0x2 SLOAD SWAP5 PUSH1 0x40 MLOAD SWAP3 DUP4 MSTORE PUSH1 0x20 DUP4 ADD MSTORE PUSH1 0x40 DUP3 ADD MSTORE LOG2 STOP JUMPDEST PUSH1 0x40 MLOAD PUSH3 0x461BCD PUSH1 0xE5 SHL DUP2 MSTORE PUSH1 0x20 PUSH1 0x4 DUP3 ADD MSTORE PUSH1 0x25 PUSH1 0x24 DUP3 ADD MSTORE PUSH32 0x526577617264206D7573742062652067726561746572207468616E20656E7472 PUSH1 0x44 DUP3 ADD MSTORE PUSH5 0x7920666565 PUSH1 0xD8 SHL PUSH1 0x64 DUP3 ADD MSTORE PUSH1 0x84 SWAP1 REVERT JUMPDEST PUSH1 0x40 MLOAD PUSH3 0x461BCD PUSH1 0xE5 SHL DUP2 MSTORE PUSH1 0x20 PUSH1 0x4 DUP3 ADD MSTORE PUSH1 0x1D PUSH1 0x24 DUP3 ADD MSTORE PUSH32 0x446966666963756C7479206D75737420626520312C20322C206F722033000000 PUSH1 0x44 DUP3 ADD MSTORE PUSH1 0x64 SWAP1 REVERT JUMPDEST POP PUSH1 0x3 DUP3 GT ISZERO PUSH2 0x505 JUMP JUMPDEST CALLVALUE PUSH2 0xF5 JUMPI PUSH1 0x20 CALLDATASIZE PUSH1 0x3 NOT ADD SLT PUSH2 0xF5 JUMPI PUSH2 0x655 PUSH1 0x1 DUP1 PUSH1 0xA0 SHL SUB PUSH1 0x0 SLOAD AND CALLER EQ PUSH2 0x673 JUMP JUMPDEST PUSH1 0x4 CALLDATALOAD PUSH1 0x0 SWAP1 DUP2 MSTORE PUSH1 0x1 PUSH1 0x20 MSTORE PUSH1 0x40 SWAP1 KECCAK256 PUSH1 0x3 ADD DUP1 SLOAD PUSH1 0xFF NOT AND SWAP1 SSTORE STOP JUMPDEST ISZERO PUSH2 0x67A JUMPI JUMP JUMPDEST PUSH1 0x40 MLOAD PUSH3 0x461BCD PUSH1 0xE5 SHL DUP2 MSTORE PUSH1 0x20 PUSH1 0x4 DUP3 ADD MSTORE PUSH1 0x21 PUSH1 0x24 DUP3 ADD MSTORE PUSH32 0x4F6E6C79206F776E65722063616E2063616C6C20746869732066756E6374696F PUSH1 0x44 DUP3 ADD MSTORE PUSH1 0x37 PUSH1 0xF9 SHL PUSH1 0x64 DUP3 ADD MSTORE PUSH1 0x84 SWAP1 REVERT JUMPDEST SWAP2 SWAP1 DUP3 ADD DUP1 SWAP3 GT PUSH2 0x289 JUMPI JUMP INVALID LOG2 PUSH5 0x6970667358 0x22 SLT KECCAK256 0xDB GASLIMIT 0xA9 PUSH22 0xBDEA8F701CEA084370140628032AAF65D016D8DDDA2D 0x24 0x23 0xBB 0xEB 0xDB DUP6 PUSH5 0x736F6C6343 STOP ADDMOD SHR STOP CALLER "},"methodIdentifiers":{"challengeCount()":"a2f05725","challenges(uint256)":"8f1d3776","createChallenge(uint256,uint256,uint256)":"51d2f246","deactivateChallenge(uint256)":"4fcc2c88","owner()":"8da5cb5b","participate(uint256)":"845c9306","submitSolution(uint256,bool)":"89fc3807","withdrawLockedAmount()":"d726f319"}}}}}