{
  "_format": "hh-sol-artifact-1",
  "contractName": "DaccyChallenge",
  "sourceName": "contracts/DaccyChallenge.sol",
  "abi": [
    {
      "inputs": [],
      "stateMutability": "nonpayable",
      "type": "constructor"
    },
    {
      "anonymous": false,
      "inputs": [
        {
          "indexed": true,
          "internalType": "uint256",
          "name": "challengeId",
          "type": "uint256"
        },
        {
          "indexed": false,
          "internalType": "uint256",
          "name": "entryFee",
          "type": "uint256"
        },
        {
          "indexed": false,
          "internalType": "uint256",
          "name": "reward",
          "type": "uint256"
        },
        {
          "indexed": false,
          "internalType": "uint256",
          "name": "difficulty",
          "type": "uint256"
        }
      ],
      "name": "ChallengeCreated",
      "type": "event"
    },
    {
      "anonymous": false,
      "inputs": [
        {
          "indexed": true,
          "internalType": "uint256",
          "name": "challengeId",
          "type": "uint256"
        },
        {
          "indexed": false,
          "internalType": "address",
          "name": "participant",
          "type": "address"
        }
      ],
      "name": "ChallengeFailed",
      "type": "event"
    },
    {
      "anonymous": false,
      "inputs": [
        {
          "indexed": true,
          "internalType": "uint256",
          "name": "challengeId",
          "type": "uint256"
        },
        {
          "indexed": false,
          "internalType": "address",
          "name": "participant",
          "type": "address"
        }
      ],
      "name": "ChallengeParticipated",
      "type": "event"
    },
    {
      "anonymous": false,
      "inputs": [
        {
          "indexed": true,
          "internalType": "uint256",
          "name": "challengeId",
          "type": "uint256"
        },
        {
          "indexed": false,
          "internalType": "address",
          "name": "solver",
          "type": "address"
        },
        {
          "indexed": false,
          "internalType": "uint256",
          "name": "reward",
          "type": "uint256"
        }
      ],
      "name": "ChallengeSolved",
      "type": "event"
    },
    {
      "stateMutability": "payable",
      "type": "fallback"
    },
    {
      "inputs": [],
      "name": "challengeCount",
      "outputs": [
        {
          "internalType": "uint256",
          "name": "",
          "type": "uint256"
        }
      ],
      "stateMutability": "view",
      "type": "function"
    },
    {
      "inputs": [
        {
          "internalType": "uint256",
          "name": "",
          "type": "uint256"
        }
      ],
      "name": "challenges",
      "outputs": [
        {
          "internalType": "uint256",
          "name": "entryFee",
          "type": "uint256"
        },
        {
          "internalType": "uint256",
          "name": "reward",
          "type": "uint256"
        },
        {
          "internalType": "uint256",
          "name": "difficulty",
          "type": "uint256"
        },
        {
          "internalType": "bool",
          "name": "isActive",
          "type": "bool"
        },
        {
          "internalType": "uint256",
          "name": "lockedAmount",
          "type": "uint256"
        }
      ],
      "stateMutability": "view",
      "type": "function"
    },
    {
      "inputs": [
        {
          "internalType": "uint256",
          "name": "_entryFee",
          "type": "uint256"
        },
        {
          "internalType": "uint256",
          "name": "_reward",
          "type": "uint256"
        },
        {
          "internalType": "uint256",
          "name": "_difficulty",
          "type": "uint256"
        }
      ],
      "name": "createChallenge",
      "outputs": [],
      "stateMutability": "nonpayable",
      "type": "function"
    },
    {
      "inputs": [
        {
          "internalType": "uint256",
          "name": "_challengeId",
          "type": "uint256"
        }
      ],
      "name": "deactivateChallenge",
      "outputs": [],
      "stateMutability": "nonpayable",
      "type": "function"
    },
    {
      "inputs": [],
      "name": "owner",
      "outputs": [
        {
          "internalType": "address",
          "name": "",
          "type": "address"
        }
      ],
      "stateMutability": "view",
      "type": "function"
    },
    {
      "inputs": [
        {
          "internalType": "uint256",
          "name": "_challengeId",
          "type": "uint256"
        }
      ],
      "name": "participate",
      "outputs": [],
      "stateMutability": "payable",
      "type": "function"
    },
    {
      "inputs": [
        {
          "internalType": "uint256",
          "name": "_challengeId",
          "type": "uint256"
        },
        {
          "internalType": "bool",
          "name": "_isCorrect",
          "type": "bool"
        }
      ],
      "name": "submitSolution",
      "outputs": [],
      "stateMutability": "nonpayable",
      "type": "function"
    },
    {
      "inputs": [],
      "name": "withdrawLockedAmount",
      "outputs": [],
      "stateMutability": "nonpayable",
      "type": "function"
    },
    {
      "stateMutability": "payable",
      "type": "receive"
    }
  ],
  "bytecode": "0x60808060405234602757600080546001600160a01b0319163317905561070c908161002d8239f35b600080fdfe60806040526004361015610010575b005b60003560e01c80634fcc2c881461062f57806351d2f246146104c9578063845c93061461035c57806389fc38071461019e5780638da5cb5b146101755780638f1d377614610118578063a2f05725146100fa5763d726f3190361000e57346100f55760003660031901126100f5576000546001600160a01b0316610095338214610673565b479081156100b9576000808093819382f1156100ad57005b6040513d6000823e3d90fd5b60405162461bcd60e51b81526020600482015260146024820152734e6f2066756e647320746f20776974686472617760601b6044820152606490fd5b600080fd5b346100f55760003660031901126100f5576020600254604051908152f35b346100f55760203660031901126100f557600435600052600160205260a060406000208054906001810154906002810154600660ff6003840154169201549260405194855260208501526040840152151560608301526080820152f35b346100f55760003660031901126100f5576000546040516001600160a01b039091168152602090f35b346100f55760403660031901126100f55760043560243580151581036100f55781600052600160205260406000209060018060a01b0333166000526004820160205260ff604060002054161561032357156102e45760068101805491600181019283541161029f5733600090815260059190910160205260409020805460ff1916600117905581548154818103908111610289576000809392819392829355818115610280575b3390f1156100ad5760407fec5fedc172d29053dca0966115cec0fd3d8aa33da7ae6864d48bc027cd4546cf91548151903382526020820152a2005b506108fc610245565b634e487b7160e01b600052601160045260246000fd5b60405162461bcd60e51b815260206004820152601d60248201527f496e73756666696369656e742066756e647320666f72207265776172640000006044820152606490fd5b6102f56006825492019182546106c9565b90557f61dcb7fa860e7e38e91b49276d6bfba58f1d766da616d851c2e14af7b37701446020604051338152a2005b60405162461bcd60e51b8152602060048201526011602482015270139bdd0818481c185c9d1a58da5c185b9d607a1b6044820152606490fd5b60203660031901126100f557600435806000526001602052604060002060ff60038201541615610484578054340361044957600481019060018060a01b0333166000528160205260ff6040600020541661040c5760069160018060a01b0333166000526020526040600020600160ff19825416179055016103de3482546106c9565b90557f5566b34ac6656d5f2d5e85c026fa44ba79a57824b72414dfd5d86877b42ee1276020604051338152a2005b60405162461bcd60e51b8152602060048201526015602482015274416c72656164792070617274696369706174696e6760581b6044820152606490fd5b60405162461bcd60e51b8152602060048201526013602482015272496e636f727265637420656e7472792066656560681b6044820152606490fd5b60405162461bcd60e51b815260206004820152601760248201527f4368616c6c656e6765206973206e6f74206163746976650000000000000000006044820152606490fd5b346100f55760603660031901126100f55760043560243590604435906104fa60018060a01b03600054163314610673565b600182101580610624575b156105df578083111561058c57600254906000198214610289577f71444deea443abe40c561182ab0dae2411f0332e97f2632843873f3e17f4b7f6926001606093018060025560005260016020526003604060002083815586600182015582600282015501600160ff198254161790556002549460405192835260208301526040820152a2005b60405162461bcd60e51b815260206004820152602560248201527f526577617264206d7573742062652067726561746572207468616e20656e7472604482015264792066656560d81b6064820152608490fd5b60405162461bcd60e51b815260206004820152601d60248201527f446966666963756c7479206d75737420626520312c20322c206f7220330000006044820152606490fd5b506003821115610505565b346100f55760203660031901126100f55761065560018060a01b03600054163314610673565b6004356000908152600160205260409020600301805460ff19169055005b1561067a57565b60405162461bcd60e51b815260206004820152602160248201527f4f6e6c79206f776e65722063616e2063616c6c20746869732066756e6374696f6044820152603760f91b6064820152608490fd5b919082018092116102895756fea2646970667358221220db45a975bdea8f701cea084370140628032aaf65d016d8ddda2d2423bbebdb8564736f6c634300081c0033",
  "linkReferences": {},
  "deployedLinkReferences": {}
}